:100000000C94D01C0C94101D0C94101D0C94101DFD
:100010000C94101D0C94101D0C94101D0C94101DAC
:100020000C94101D0C94101D0C94101D0C94101D9C
:100030000C94101D0C94101D0C94101D0C94101D8C
:100040000C94101D0C943F840C94101D0C94101DE6
:100050000C94101D0C9447810C94101D0D94FB31D1
:100060000C94101D0C94A8530C949E530C94101DCA
:100070000C94101D0C94101D0C94101D0C94101D4C
:100080000C9435330C94101D0C94101D0C94101D01
:100090000C94101D0C94101D0C94101D0C94101D2C
:1000A0000C94101D0C94101D0C9407330C94101D0F
:1000B0000C94101D0C94101D0C94101D0C94101D0C
:1000C0000C94101D0C94101D0C94101D0C94101DFC
:1000D0000C94101D0C94101D0C94101D0C94101DEC
:1000E0000C94101D084AD73B3BCE016E84BCBFFD6B
:1000F000C12F3D6C74319ABD56833DDA3D00C77FF8
:1001000011BED9E4BB4C3E916BAAAABE0000008090
:100110003F05A84CCDB2D44EB93836A9020C50B91F
:10012000918688083CA6AAAA2ABE000000803F004B
:100130000D94B8300D9423300D940E300D94360686
:100140000D94EC180D948C0E0D94111A0D94051C41
:100150000D9432310D943B300D9481050D9408318E
:100160000D944D300D949F050D942F050D9448303E
:100170000D94F9130D9443300D94DB050D94273144
:100180000D9427300D943F300D94721F0D9416304E
:100190000D94D3300D9449300D941D300D946B1790
:1001A0000D942D300D941D310D9408300D94313087
:1001B0000D94BD050D94AA460D94731F0D94841DD6
:1001C0000D9437180D9451110D947D460D940C31FA
:1001D0000D9412300D9417310D9435300D94451F48
:1001E0000D941A304E414E494E495459494E46CD10
:1001F000CCCC3D0AD7233C17B7D13877CC2B3295DE
:1002000095E6241FB14F0A000020410000C84200BB
:10021000401C4620BCBE4CCA1B0E5AAEC59D740085
:10022000407A10F35A00A0724E18090010A5D4E8C5
:100230000000E87648170000E40B54020000CA9A58
:100240003B000000E1F505000080969800000040AA
:10025000420F000000A086010000001027000000EF
:1002600000E803000000006400000000000A000035
:100270000000000100000000002C76D888DC674FE9
:100280000823DFC1DFAE59E1B1B796E5E3E453C619
:100290003AE651997696E8E6C28426EB898C9B6211
:1002A000ED407C6FFCEFBC9C9F40F2BAA56FA5F4BB
:1002B00090055A2AF75C936B6CF9676DC11BFCE0E3
:1002C000E40D47FEF520E6B500D0ED902E03009436
:1002D0003577050080841E080000204E0A000000CB
:1002E000C80C333333330F986E12831141EF8D21D5
:1002F00014893BE65516CFFEE6DB18D1844B381B3C
:10030000F77C1D901DA4BBE424203284725E228100
:1003100000C9F124ECA1E53D27434F4D4D554E4911
:10032000434154494F4E0044525952554E00455294
:10033000524F525300494E464F004543484F0053D9
:10034000544F505045442E20005072696E746572AF
:100350002073746F707065642064756520746F20FD
:100360006572726F72732E204669782074686520FA
:100370006572726F7220616E6420757365204D39ED
:10038000393920746F20726573746172742E20285D
:1003900054656D7065726174757265206973207241
:1003A000657365742E2053657420697420616674CA
:1003B00065722072657374617274696E67290A00D0
:1003C0004E6F20436865636B73756D207769746841
:1003D000206C696E65206E756D6265722C204C61B3
:1003E0007374204C696E653A20004E6F2043686537
:1003F000636B73756D2077697468206C696E652016
:100400006E756D6265722C204C617374204C696E40
:10041000653A2000636865636B73756D206D697361
:100420006D617463682C204C617374204C696E6537
:100430003A20004C696E65204E756D6265722069C8
:1004400073206E6F74204C617374204C696E65204C
:100450004E756D6265722B312C204C617374204C8B
:10046000696E653A20004D31313000536572696123
:100470006C20737461747573206D69736D6174633E
:10048000680A0053442072656164206572726F725D
:100490000A004B494C4C20627574746F6E2F706962
:1004A0006E0A002121204B494C4C20636175736515
:1004B000642062792000746F6F206D756368206915
:1004C0006E6163746976652074696D65202D2063A3
:1004D000757272656E7420636F6D6D616E643A2023
:1004E000002121204B494C4C2063617573656420C9
:1004F00062792000627573793A2070617573656462
:1005000020666F7220696E7075740A006275737967
:100510003A2070617573656420666F72207573652B
:10052000720A00627573793A2070726F6365737333
:10053000696E670A004D656469612052656D6F766A
:100540006564004D6564696120496E736572746508
:1005500064004D3130303053004D3630302054255A
:100560006300506C6561736520526573657400505B
:1005700052494E5445522048414C5445440025535D
:100580003A202553004B494C4C45442E20005072D4
:10059000696E7465722068616C7465642E206B6985
:1005A0006C6C28292063616C6C6564210A0000650D
:1005B00063686F3A004572726F723A000A4D656166
:1005C000737572656420706F696E74733A0A0033D4
:1005D0007833206D6573682E205A206F66667365C8
:1005E000743A200020460020570020204D3230373A
:1005F00020530020460020570020204D3230382064
:10060000530020204D323039205300486F74656EFE
:100610006420746F6F20636F6C640A004F46460A53
:10062000004661646520486569676874200042651A
:1006300064204C6576656C696E6720004661696C64
:10064000656420746F20656E61626C65204265642C
:10065000204C6576656C696E670A004D657368208D
:10066000426564204C6576656C20646174613A0A69
:1006700000496E76616C6964206D6573682E0A00AE
:10068000206E6F7420656E74657265642E0A00506A
:10069000726F62696E6720506F696E740025532017
:1006A00025692F256900206F6620004D424C2047A8
:1006B000323920706F696E742000290A004A206F59
:1006C0007574206F662072616E67652028302D007A
:1006D000290A0049206F7574206F662072616E6769
:1006E000652028302D004D6573682070726F626937
:1006F0006E6720646F6E65004D6573682070726F61
:1007000062696E6720646F6E652E0A0053746172B1
:1007100074206D6573682070726F62696E672077F0
:100720006974682022473239205331222066697269
:1007300073742E0A004732395332004732380A4761
:100740003239533200686173206E6F2064617461C6
:100750002E0A004D65736820426564204C657665FD
:100760006C696E67200053206F7574206F6620726D
:10077000616E67652028302D35292E0A004D65737E
:100780006820706F696E74206F7574206F662072B8
:10079000616E67650A004D34323120696E636F7295
:1007A0007265637420706172616D65746572207525
:1007B000736167650A0020440020204D32303020EC
:1007C000540020204D3230302053002028446973DB
:1007D00061626C6564293A0046696C616D656E748E
:1007E0002073657474696E67730020204D32303158
:1007F00020540020204D3230312058004D617820A7
:10080000416363656C65726174696F6E2028756EF3
:100810006974732F7332290020204D3230332054F5
:100820000020204D3230332058004D61782066651D
:10083000656472617465732028756E6974732F73B3
:10084000290020520020204D3230342050004163D6
:1008500063656C65726174696F6E2028756E69746A
:10086000732F7332292028503C7072696E742D6189
:100870006363656C3E20523C726574726163742DD3
:10088000616363656C3E20543C74726176656C2DC7
:10089000616363656C3E29002054002053002020D2
:1008A0004D323035204200416476616E63656420CC
:1008B00028423C6D696E5F7365676D656E745F7429
:1008C000696D655F75733E20533C6D696E5F66654B
:1008D0006564726174653E20543C6D696E5F74722C
:1008E0006176656C5F66656564726174653E20580B
:1008F0003C6D61785F6A65726B3E20593C6D617832
:100900005F6A65726B3E205A3C6D61785F6A657202
:100910006B3E20453C6D61785F6A65726B3E2900D5
:1009200020204D32313700546F6F6C2D6368616E3B
:1009300067696E670020440020490020204D333055
:1009400031205000486F74656E6420504944002087
:10095000450020204D393220540020204D393220CE
:10096000580053746570732070657220756E6974D9
:100970000020580020204D61783A200020002020DF
:100980004D696E3A2000203B200020204D3231314D
:10099000205300536F667420656E6473746F7073B8
:1009A00000507265737320627574746F6E20746F7B
:1009B0002068656174206E6F7A7A6C650A00496EF2
:1009C000736572742066696C616D656E7420616E0A
:1009D0006420707265737320627574746F6E0A00A0
:1009E000203B00205500204C0020204D3630332085
:1009F000540046696C616D656E74206C6F61642F84
:100A0000756E6C6F6164004D323453256C645425EF
:100A10006C64004739322E3945257300473146252D
:100A2000640047315A257346363030004731582527
:100A3000735925734633303030004D3130365025F0
:100A400069532569005425692053004D31303953CD
:100A50002569004D3230305425694430004D323024
:100A600030542569442573004739322E395A25738D
:100A7000004D3432305325635A25730047323852C3
:100A80003058590047315A257346363030004739BF
:100A9000322E395A2573004739322E394530004DF0
:100AA000313039532569004D313930532569004DB6
:100AB000343230205330205A3000203B2000202098
:100AC0004D343133205300506F7765722D6C6F7346
:100AD00073207265636F76657279003B2000204950
:100AE0006E76616C696420657874727564657220D5
:100AF00000536C6565702E2E2E005A2050726F6266
:100B0000652050617374204265640A005A20507257
:100B10006F626520506173742042656400205A3A08
:100B2000200020593A200042656420583A20004DA8
:100B300065736820706F696E74206F7574206F66BE
:100B40002072616E67650A00436C69636B20746F85
:100B500020526573756D652E2E2E004E6F204D6FE1
:100B600076652E00456E642066696C65206C69733D
:100B7000740A00426567696E2066696C65206C695D
:100B800073740A004E6F206D656469610A00286EF7
:100B90006F2066696C65290043757272656E7420FA
:100BA00066696C653A20005344207072696E7469FE
:100BB0006E67206279746520004E6F742053442064
:100BC0007072696E74696E670A0025697300256921
:100BD0006D20256973002569682025696D202569C8
:100BE0007300256964202569682025696D202569C1
:100BF00073002569792025696420256968202569A5
:100C00006D20256973005072696E742074696D657A
:100C10003A20006F6B006F6666003A0335032E03BF
:100C20002703190344454255473A004D31313220DC
:100C300053687574646F776E004D31313320530003
:100C40003344205072696E746572204F46462E0000
:100C50002F2F004D31343520533C696E6465783E4A
:100C6000206F7574206F662072616E676520283072
:100C70002D31290A005741524E494E4721204C6FD1
:100C800077205A204A65726B206D6179206C65610E
:100C90006420746F20756E77616E74656420706176
:100CA000757365732E0A0046523A0020466C6F77C2
:100CB0003A20003A200020536572766F2000206FA2
:100CC0007574206F662072616E67650A00536572E5
:100CD000766F20004D424C2041646A757374205A2F
:100CE00000496E76616C696420657874727564651C
:100CF000720A0064697300656E0043290A0061622C
:100D00006C656420286D696E2074656D70200043E9
:100D10006F6C6420657874727564657320617265A8
:100D200020004F4646004F4E0046696C616D656E6F
:100D3000742072756E6F757420004F6666736574EB
:100D400073204170706C696564004572723A20547A
:100D50006F6F206661722100546F6F206661722090
:100D600066726F6D207265666572656E6365207070
:100D70006F696E740A00454550524F4D204F4B0A23
:100D800000290A0020746F20003F5A206F757420DC
:100D90006F662072616E6765202800290A00207442
:100DA0006F20003F59206F7574206F662072616E4E
:100DB000676520282D00290A0020746F20003F5805
:100DC000206F7574206F662072616E676520282D14
:100DD000004D383458594500446F6E652070726973
:100DE0006E74696E672066696C650A004D3737005E
:100DF0004D33310020204D323036205800486F6D81
:100E000065206F6666736574004361703A00434FF6
:100E10004E4649475F4558504F5254004D45415446
:100E20005041434B00434F4F4C45525F54454D504A
:100E300045524154555245004348414D4245525F49
:100E400054454D5045524154555245004241425936
:100E50005354455050494E470041524353004D4F63
:100E600054494F4E5F4D4F44455300544845524DF1
:100E7000414C5F50524F54454354494F4E004558E2
:100E800054454E4445445F4D323000435553544F12
:100E90004D5F4649524D574152455F55504C4F4169
:100EA00044004C464E5F5752495445004C4F4E4704
:100EB0005F46494C454E414D45004155544F5245C2
:100EC000504F52545F53445F535441545553005351
:100ED000445F575249544500524550454154004DD6
:100EE000554C54495F564F4C554D45005344434172
:100EF00052440050524F4D50545F535550504F5232
:100F00005400484F53545F414354494F4E5F434F41
:100F10004D4D414E445300454D455247454E435972
:100F20005F50415253455200434153455F4C49473E
:100F300048545F4252494748544E45535300544F1A
:100F400047474C455F4C494748545300534F46541C
:100F5000574152455F504F574552004255494C4406
:100F60005F50455243454E54004C4556454C494E02
:100F7000475F44415441005A5F50524F424500522E
:100F8000554E4F5554004155544F4C4556454C0015
:100F90005052494E545F4A4F420050524F475245BB
:100FA0005353004155544F5245504F52545F54458E
:100FB0004D50004155544F5245504F52545F504F81
:100FC0005300564F4C554D455452494300454550EA
:100FD000524F4D0042494E4152595F46494C455F80
:100FE0005452414E534645520053455249414C5F7D
:100FF000584F4E5F584F4646004649524D57415252
:10100000455F4E414D453A4D61726C696E205433D7
:10101000444820322E302E392E3520543344482077
:1010200053563032424C544D53484D4B534D56332A
:1010300020284F637420313720323032322032334F
:101040003A32393A31352920534F555243455F439F
:101050004F44455F55524C3A68747470733A2F2F61
:101060006769746875622E636F6D2F746865336489
:1010700068616D6D65722F4D61726C696E2F74724F
:1010800065652F743364682D76322E302E392E35F7
:101090002050524F544F434F4C5F56455253494F87
:1010A0004E3A312E30204D414348494E455F545908
:1010B00050453A3344205072696E74657220455829
:1010C0005452554445525F434F554E543A32205581
:1010D0005549443A63656465326132662D34316145
:1010E000322D343734382D396231322D6335356342
:1010F00036326633363766660A0020204D32353088
:101100002043004C434420436F6E7472617374003B
:1011100047322F47332062616420706172616D65D0
:10112000746572730A00203B0020590020204D385E
:1011300035312058005A2D50726F6265204F666617
:101140007365740043616E6E6F74206F70656E20FE
:10115000737562646972200020573A00426564200A
:10116000436F6F6C696E672E2E2E004265642048B7
:10117000656174696E672E2E2E00206661696C654C
:10118000642120426164206865617465722069642D
:101190000A00504944204175746F74756E650023D0
:1011A000646566696E652044454641554C545F0050
:1011B0004B6420004B6920004B7020002066696E54
:1011C0006973686564212050757420746865206CAB
:1011D000617374204B702C204B6920616E64204B2E
:1011E0006420636F6E7374616E74732066726F6DCA
:1011F0002062656C6F7720696E746F20436F6E6636
:10120000696775726174696F6E2E680A005049448F
:10121000204175746F74756E6500206661696C6538
:1012200064212074696D656F75740A00504944200B
:101230004175746F74756E6500206661696C6564D4
:10124000212054656D706572617475726520746FCC
:101250006F20686967680A00504944204175746FBF
:1012600074756E6500504944204379636C65730062
:1012700025532025692F256900204B643A20002042
:101280004B693A2000204B703A200020436C617378
:1012900073696320504944200A002054753A2000A5
:1012A000204B753A2000206D61783A2000206D694E
:1012B0006E3A200020643A200020626961733A206F
:1012C000002073746172740A00504944204175749F
:1012D0006F74756E6500206661696C6564212054C9
:1012E000656D706572617475726520746F6F2068CA
:1012F0006967680A00504944204175746F74756EBF
:101300006500504944204175746F74756E650045E1
:1013100072723A207574663820666F6E74206E6F34
:101320007420696E697469616C697A65642E004520
:1013300072723A207574663820666F6E74206E6F14
:101340007420696E697469616C697A65642E004500
:1013500072723A207574663820666F6E74206E6FF4
:101360007420696E697469616C697A65642E00FF26
:10137000E0FFD140A0C8A6A22FF80023AC00AF1018
:10138000FFFEFF05FFD0FFE0FFC1FFD1E240A0C894
:10139000A6A22FF800238127AC00AFFFD0FF64FF87
:1013A000D1A5FFD0FF64FF64FFD1A4FFD0FF16FFDB
:1013B000FE000C0F00FE07022503BB017FFE08FEA6
:1013C00008FE05080806000040F0C88888987810D4
:1013D000050808060000C0F88888888888F8050590
:1013E000050600012030F83020050808060000201E
:1013F00070F820202020E00509090600FF2070A8D1
:10140000A8B888887020070505070001D86C366CDD
:10141000D80509090600FFF8A88888888888A8F8F0
:10142000050A0A0600FE205050505088A8A888706F
:1014300003030306000340A040FFFFFFFFFFFFFF81
:10144000FFFFFFFFFFFFFFFFFFFFFFFFFFFFFF00AB
:1014500000000605FF0107070602008080808080EB
:101460000080030303060105A0A0A00506060600F0
:101470000050F85050F8500509090600FF2070A8E8
:10148000A07028A87020050707060000C8C8102013
:1014900040989805070706000040A0A040A8906863
:1014A0000103030602058080800309090601FF206D
:1014B00040408080804040200309090601FF8040B1
:1014C0004020202040408005070706000020A8702B
:1014D0002070A8200505050600012020F820200224
:1014E00003030601FFC04080050101060003F80266
:1014F0000202060100C0C005070706000008101020
:1015000020404080050707060000708898A8C8881A
:101510007003070706010040C040404040E0050757
:1015200007060000708808102040F805070706002D
:1015300000F8081030088870050707060000103012
:101540005090F81010050707060000F880F0080812
:101550008870050707060000304080F08888700515
:101560000707060000F808101020202005070706CE
:101570000000708888708888700507070600007072
:10158000888878081060020505060100C0C000C008
:10159000C00206060601FFC0C000C040800305056A
:1015A0000601012040804020050303060002F800E8
:1015B000F803050506010180402040800507070665
:1015C000000070881020200020050707060000702A
:1015D00088B8A8B88070050707060000708888F8EA
:1015E000888888050707060000F04848704848F0DA
:1015F000050707060000708880808088700507074F
:10160000060000F04848484848F005070706000073
:10161000F88080F08080F8050707060000F88080D9
:10162000F080808005070706000070888080988819
:1016300070050707060000888888F88888880307EF
:1016400007060100E04040404040E0050707060073
:1016500000381010101090600507070600008890F1
:10166000A0C0A090880507070600008080808080C9
:1016700080F805070706000088D8A88888888805AC
:1016800007070600008888C8A89888880507070605
:10169000000070888888888870050707060000F0B9
:1016A0008888F08080800507070600007088888899
:1016B000A89068050707060000F08888F0A09088C9
:1016C0000507070600007088807008887005070706
:1016D000060000F820202020202005070706000033
:1016E00088888888888870050707060000888888A9
:1016F0008850502005070706000088888888A8A819
:101700005005070706000088885020508888050784
:1017100007060000888850202020200507070600C3
:1017200000F80810204080F80309090601FFE08056
:10173000808080808080E0050707060000804040B0
:10174000201010080309090601FFE02020202020B6
:101750002020E0050303060005205088050101064E
:1017600000FEF80303030601058040200505050679
:10177000000070087888780507070600008080F070
:10178000888888F00505050600007080808870054F
:101790000707060000080878888888780505050688
:1017A00000007088F0807005070706000030484090
:1017B000E04040400507070600FE708888887808EA
:1017C000700507070600008080F088888888030776
:1017D000070601004000C0404040E004090906013E
:1017E000FE10003010101010906005070706000072
:1017F00080808890E09088030707060100C0404081
:10180000404040E0050505060000D0A8A8A8A805AE
:101810000505060000B0C888888805050506000093
:1018200070888888700507070600FEF0888888F0B1
:1018300080800507070600FE7888888878080805F4
:101840000505060000B0C88080800505050600007B
:1018500078807008F00507070600002020F8202097
:101860002018050505060000888888986805050584
:101870000600008888885020050505060000888835
:10188000A8A85005050506000088502050880507C7
:10189000070600FE88888850204080050505060060
:1018A00000F8102040F80309090601FF20404040DD
:1018B00080404040200109090602FF80808080802E
:1018C000808080800309090601FF8040404020405D
:1018D00040408005030306000248A890FF414253A0
:1018E00000504C41002100486F74656E6420746F95
:1018F0006F20636F6C64004261636B0050726F63B2
:10190000656564004D6F7665202A004D6F76652011
:101910004578747275646572004D6F76652040007D
:101920004D6F74696F6E0044697361626C6520531A
:1019300074657070657273004D383400507265685C
:101940006561742024004D6F7665204178697300CD
:101950004175746F20486F6D65004D61696E00437D
:10196000616E63656C00446F6E65004D6F76652037
:10197000246D6D00302E303235004D6F766520308D
:101980002E316D6D004D6F766520316D6D0050729A
:101990006F6265205A204F6666736574005A004D69
:1019A0006F7665204E6F7A7A6C6520746F20426581
:1019B00064004D6F76696E6720746F2050726F629D
:1019C000696E6720506F730050726F62696E672096
:1019D0005A205265666572656E636500473238004D
:1019E00050726568656174202420426564005072FD
:1019F0006568656174202420456E640054656D70CF
:101A00006572617475726500E118DD18436F6F6C63
:101A1000646F776E005072656865617420240046BB
:101A2000616E20537065656400426564004E6F7A94
:101A30007A6C65205374616E646279004E6F7A7AB5
:101A40006C65004D61696E00426162797374657006
:101A5000205A004261627973746570204000466CC0
:101A60006F77207E00466C6F770046616E20537062
:101A700065656400426564004E6F7A7A6C65205338
:101A800074616E646279004E6F7A7A6C65004265AB
:101A900064205A005370656564004D61696E0000F2
:101AA0000020002300260029002C002F0032000017
:101AB0000100000301060109016F70656E005452B8
:101AC00049474745524544003A200066696C616DBC
:101AD000656E74007A5F70726F6265007A5F6D691F
:101AE0006E00795F6D696E00785F6D696E0052659A
:101AF000706F7274696E6720656E6473746F7020A6
:101B00007374617475730A000000964300007A4391
:101B100000009B43000000000000000000000000E7
:101B200020746F6F206C6F6E6720657874727573A8
:101B3000696F6E2070726576656E7465640A002048
:101B4000636F6C6420657874727573696F6E207052
:101B5000726576656E7465640A00486F6D65202550
:101B600073257325732046697273740000000000AA
:101B700000000000000000005761726E696E673A55
:101B800020486F6D696E672042756D7020446976DC
:101B900069736F72203C20310A0002020400009633
:101BA0004300007A4300009B430000A0400000A0D7
:101BB000400000004020746F6F206C6F6E672065DE
:101BC0007874727573696F6E2070726576656E7465
:101BD00065640A0020636F6C6420657874727573A5
:101BE000696F6E2070726576656E7465640A005365
:101BF000544F505045442E20005072696E746572E7
:101C00002073746F707065642064756520746F2034
:101C10006572726F72732E20466978207468652031
:101C20006572726F7220616E6420757365204D3924
:101C3000393920746F20726573746172742E202894
:101C400054656D7065726174757265206973207278
:101C5000657365742E205365742069742061667401
:101C600065722072657374617274696E67290A0007
:101C7000206572726F72202D2072657374617274A8
:101C80002077697468204D3939390A00424C546F05
:101C90007563680021212053544F502063616C6CA0
:101CA00065642062656361757365206F662000530B
:101CB000657474696E67732053746F72656400296C
:101CC0000A002062797465733B20637263200053BD
:101CD000657474696E67732053746F72656420282D
:101CE0000048617264636F64656420446566617571
:101CF0006C742053657474696E6773204C6F6164F3
:101D000065640020286D6D2900203B204C657665B8
:101D10006C696E67200020204D3432302053004D16
:101D200065736820426564204C6576656C696E67F2
:101D30000020460020420020480020204D3134354C
:101D40002053004D6174657269616C20686561742F
:101D5000757020706172616D657465727300526593
:101D600074726163742028533C6C656E6774683EBE
:101D700020463C66656564726174653E205A3C6C21
:101D80006966743E29005265636F76657220285338
:101D90003C6C656E6774683E20463C66656564729F
:101DA0006174653E29004175746F2D5265747261CE
:101DB00063742028533C656E61626C653E29002087
:101DC0003B2053656E736F72200020204D343132FA
:101DD00020530046696C616D656E742072756E6F7C
:101DE00075742073656E736F72002020473239203E
:101DF0005334205A00205A00204A0020204732390C
:101E000020533320490020204D3134392043203BDA
:101E100020556E69747320696E2043656C73697513
:101E2000730A0054656D7065726174757265205532
:101E30006E697473002020473231203B004C696E7C
:101E400065617220556E69747300454550524F4D5F
:101E5000206461746173697A65206572726F722E95
:101E60000A00290A002062797465733B206372635B
:101E700020002073746F7265642073657474696EDA
:101E80006773207265747269657665642028002026
:101E90002863616C63756C6174656429210A002094
:101EA000213D2000454550524F4D20435243206D67
:101EB00069736D61746368202D202873746F726577
:101EC000642920002053697A653A2000496E6465D0
:101ED000783A20000000FA430000FA430000A040D6
:101EE0000000C8410000A0420000A0420000C8431A
:101EF0000000BA420000BA42F4010000F401000000
:101F000064000000F4010000204D61726C696E3DB8
:101F1000563836290A00454550524F4D2076657295
:101F200073696F6E206D69736D61746368202845F5
:101F30004550524F4D3D0024F4D43050C38E20C242
:101F4000A24017828B7011127A910D816CD90AA868
:101F500061E108C7586607615143061E4B5D05C124
:101F600045A7041A411104093D9803713931034012
:101F700036DB0265339102D4305402802E1D026399
:101F80002CEE01752AC501B028A001102781018F10
:101F90002564012B244B01E0223401AC211F018D6B
:101FA000200D01801FFC00841EED00971DDF00B88E
:101FB0001CD200E61BC600201BBC00641AB200B293
:101FC00019A8000A19A0006A189900D117910040B9
:101FD000178B00B516840031167E00B31579003AD0
:101FE000157300C7146F0058146A00EE136600885A
:101FF00013630025135E00C7125B006C12570015B7
:10200000125400C111510070114F0021114B00D624
:102010001049008D1047004610440002104200C0D5
:102020000F4000800F3E00420F3C00060F3B00CBEC
:102030000E3800930E37005C0E3500270E3400F387
:102040000D3200C10D3100900D3000600D2E0032B8
:102050000D2D00050D2C00D90C2B00AE0C29008590
:102060000C29005C0C2700350C27000E0C2600E81C
:102070000B2400C40B2400A00B23007D0B23005A6B
:102080000B2100390B2100180B2000F80A1F00D982
:102090000A1E00BB0A1E009D0A1D00800A1D006367
:1020A0000A1C00470A1B002C0A1B00110A1A00F721
:1020B000091A00DD091900C4091900AB09190092B9
:1020C0000917007B091800630917004C0916003630
:1020D000091600200916000A091500F5081500E088
:1020E000081400CC081400B8081400A408140090C8
:1020F0000813007D0812006B0813005808120046F0
:102100000812003408110023081100120811000100
:10211000081100F0071000E0071000D0071000C001
:10212000071000B0070F00A107100091070E0083F1
:10213000070F0074070F0065070E0057070E0049D0
:10214000070E003B070D002E070E0020070D0013A1
:10215000070D0006070D00F9060C00ED060D00E066
:10216000060C00D4060C00C8060C00BC060C00B01F
:10217000060C00A4060B0099060C008D060B0082CD
:10218000060B0077060B006C060B0061060A005771
:10219000060B004C060A0042060A0038060A002E0A
:1021A000060A0024060A001A060A0010060900079B
:1021B000060A00FD050900F4050900EB050900E227
:1021C000050900D9050900D0050900C7050900BEA9
:1021D000050900B5050800AD050800A50509009C26
:1021E000050800940508008C050800840508007C9B
:1021F000050800740508006C050700650508005D0A
:10220000050700560508004E050700470507004072
:1022100005080038050700310507002A05070023D7
:102220000507001C050600160507000F0507000836
:1022300005060002050700FB040600F5040700EE92
:10224000040600E8040600E2040700DB040600D5EB
:10225000040600CF040600C9040600C3040600BD3E
:10226000040600B7040600B1040500AC040600A68D
:10227000040600A00405009B0406009504050090D8
:102280000406008A04050085040500800406007A1F
:1022900004050075040500700405006B0405006664
:1022A000040500610405005C0405005704050052A4
:1022B0000405004D04050048040500430405003EE4
:1022C0000404003A04050035040500300404002C21
:1022D00004050027040400230405001E0404001A5A
:1022E00004040016040500110404000D0404000990
:1022F0000405000404040000040400FC030400F8C6
:10230000030400F4030400F0030400EC030400E8F9
:10231000030400E4030400E0030400DC030400D829
:10232000030400D4030400D0030400CC030400C859
:10233000030300C503030024F404D9201BC40C5C70
:102340000E9804C4095F0265077101F405F900FBEA
:1023500004B30048048700C1036900580355000313
:10236000034500BE023A008402310053022A0029CC
:1023700002250004022000E4011C00C8011900AF7E
:10238000011700980114008401130071011000610D
:1023900001100051010E0043010D0036010B002B0E
:1023A000010B0020010B00150109000C01090003BD
:1023B000010800FB000800F3000800EB000700E440
:1023C000000600DE000600D8000600D2000600CCA1
:1023D000000500C7000500C2000500BD000400B9EB
:1023E000000400B5000400B1000400AD000400A921
:1023F000000400A5000300A20003009F0004009B4E
:102400000003009800030095000200930003009071
:102410000003008D0002008B00030088000200868C
:1024200000020084000300810002007F0002007DA2
:102430000002007B000200790002007700010076B4
:102440000002007400020072000100710002006FBF
:102450000002006D0001006C0002006A00010069CA
:1024600000020067000100660001006500010064D1
:102470000002006200010061000100600001005FD5
:102480000002005D0001005C0001005B0001005AD9
:1024900000010059000100580001005700010056DA
:1024A00000010055000100540001005300000053DA
:1024B0000001005200010051000100500001004FD6
:1024C0000001004E0000004E0001004D0001004CD4
:1024D0000001004B0000004B0001004A00010049D0
:1024E00000010048000000480001004700010046CC
:1024F00000000046000100450000004500010044C6
:1025000000010043000000430001004200000042BF
:102510000001004100000041000100400001003FB7
:102520000000003F0001003E0000003E0001003DB1
:102530000000003D0001003C0000003C0000003CA9
:102540000001003B0000003B0001003A0000003A9F
:102550000001003900000039000100380000003897
:10256000000000380001003700000037000100368D
:102570000000003600000036000100350000003584
:102580000000003500010034000000340000003479
:10259000000100330000003300000033000100326E
:1025A0000000003200000032000100310000003164
:1025B0000000003100010030000000300000003059
:1025C0000001002F0000002F0000002F0000002F4E
:1025D0000001002E0000002E0000002E0001002D42
:1025E0000000002D0000002D0000002D0001002C37
:1025F0000000002C0000002C0000002C0001002B2B
:102600000000002B0000002B0000002B0001002A1E
:102610000000002A0000002A0000002A0001002912
:102620000000002900000029000000290000002906
:1026300000010028000000280000002800000028F9
:1026400000000028000100270000002700000027EC
:1026500000000027000000270001002600000026DF
:1026600000000026000000260000002600010025D2
:1026700000000025000000250000002500000025C6
:1026800000000025000100240000002400000024B8
:1026900000000024000000240001002300000023AB
:1026A000000000230000002300000023000000239E
:1026B0000000002300010022000000220000002290
:1026C0000000002200000022000000220001002182
:1026D0000000002100000021000000210000002176
:1026E0000000002100000021000100200000002067
:1026F000000000200000002000000020000000205A
:1027000000000020000000200001001F0000001F4A
:102710000000001F0000001F0000001F0000001F3D
:102720000000001F0001001E0000001E0000001E2F
:102730000000001E000000043700001E29000051A8
:102740001B00005810000010090000CC04000078A5
:102750000200004101000020436F756E7420583A5A
:1027600000426564004531004500626564002C202C
:1027700073797374656D2073746F70706564212054
:102780004865617465725F49443A20004572723A47
:10279000204D415854454D50004D415854454D50E1
:1027A0002074726967676572656400486561746961
:1027B0006E67204661696C65640048656174696E86
:1027C00067206661696C6564004572723A204D4904
:1027D0004E54454D50004D494E54454D5020747255
:1027E0006967676572656400544845524D414C20E5
:1027F00052554E4157415900546865726D616C20C5
:1028000052756E6177617900202F002042403A00B6
:1028100020403A00436F6F6C696E672E2E2E004881
:10282000656174696E672E2E2E0045312025530098
:1028300020573A00496E76616C696420657874723D
:10284000756465720A004163746976652045787421
:1028500072756465723A20007C3C3E5E2B3D3F2FD2
:102860005B5D3B2C2A225C00554E4C4F4144204678
:10287000494C414D454E54004C4F41442046494C33
:10288000414D454E540046494C414D454E54204320
:1028900048414E47450042656400456E636C6F7366
:1028A000757265002020202020202000202020207C
:1028B00000657272001FE020102010201010201000
:1028C000202010201030300840048003001FE03F1B
:1028D000F03FF03FF01FE01FE03FF03FF03FF00F10
:1028E000C0078003003FFFF038007030FC3020FC50
:1028F000102078102030102C00D02E31D02F7BD01B
:102900002F7BD02E31D02C00D020301020781020FA
:10291000FC1030FC303800703FFFF03FFFF0380013
:10292000703186302387102787902F87D02F03D0D0
:102930002030102078102078102030102F03D02F56
:1029400087D02787902387103186303800703FFF6B
:10295000F01FFFF81FFFF8041040020820020820B3
:10296000041040082080104100104100082080041D
:1029700010400000001FFFF81FFFF85072696E74CE
:102980002041626F72746564004D3235005061758C
:1029900073696E672E2E2E004D323400454550521D
:1029A0004F4D2056657273696F6E204572726F725B
:1029B00000454550524F4D20496E64657820457260
:1029C000726F7200454550524F4D2043524320458F
:1029D00072726F72003F0049676E6F7265005265D8
:1029E00073657400496E697469616C697A65204524
:1029F0004550524F4D00486F6D696E672058595AC7
:102A0000004C6F6164202A004C6F6164206D6D0082
:102A1000556E6C6F6164202A00556E6C6F61642086
:102A20006D6D0046696C2E204469612E202A004697
:102A3000696C2E204469612E004520696E206D6D01
:102A40005E33004D33303320553120452569205306
:102A5000256900504944204175746F74756E652076
:102A60002A005049442D44202A005049442D492031
:102A70002A005049442D50202A0020082046616336
:102A800074002008204D6178002008204D696E00F8
:102A90004F6666004F6E004175746F74656D70000F
:102AA0004D696E2054726176656C20537065656463
:102AB000004D696E2056656C6F63697479004D61D5
:102AC00078202A205370656564004D61782040208D
:102AD0005370656564004D6178202A204163636509
:102AE0006C004D6178204520416363656C004D6149
:102AF00078204020416363656C0054726176656C98
:102B000020416363656C0052657472616374204197
:102B10006363656C00416363656C004D61782040C0
:102B2000204A65726B005A2050726F6265205769A7
:102B30007A6172640050726F6265205A204F666637
:102B40007365740050726F62652059204F6666731A
:102B500065740050726F62652058204F6666736519
:102B600074002A2053746570732F6D6D00402073BC
:102B7000746570732F6D6D00416476616E6365647A
:102B80002053657474696E6773003F0043616E6320
:102B9000656C00496E6974004D34323800496E69C5
:102BA0007469616C697A6520454550524F4D004605
:102BB000696C616D656E740054656D7065726174E9
:102BC0007572650053746570732F6D6D0050726F70
:102BD0006265204F666673657473004A65726B00A8
:102BE000416363656C65726174696F6E004D6178F5
:102BF00020537065656420286D6D2F73290053651F
:102C00007420486F6D65204F66667365747300436A
:102C10006F6E66696775726174696F6E003F004E12
:102C200065787420436F726E657200446F6E650044
:102C30004E657874004C6576656C696E6720446FEC
:102C40006E6521004D6F7665205A00473239533248
:102C5000004E65787420506F696E74002569202FCE
:102C6000202575004732395331004732395332003D
:102C7000436C69636B20746F20426567696E005A0C
:102C80002056616C756500496E646578205900496D
:102C90006E64657820580053746F726520536574B4
:102CA00074696E6773004C6F616420536574746956
:102CB0006E677300426564205472616D6D696E6762
:102CC0000050726F6265205A204F6666736574000B
:102CD000426564205A0046616465204865696768FA
:102CE00074004F6666004F6E00426564204C657646
:102CF000656C696E670045646974204D6573680092
:102D00004C6576656C20426564004D6F74696F6E2A
:102D1000005A2052616973650053572D4D6F6465E9
:102D20000053746F77004465706C6F790053656C65
:102D3000662D546573740052657365740053205595
:102D40006E526574205600556E72657472616374BC
:102D50002056005320556E726574722E206D6D00E2
:102D6000556E726574722E206D6D00486F70206D07
:102D70006D00526574726163742056005377617000
:102D80002052652E6D6D0052657472616374206D02
:102D90006D004175746F2D526574726163740042E9
:102DA0006564004E6F7A7A6C650046616E205370E0
:102DB00065656400436F6E66696775726174696FFB
:102DC0006E00526573746F72652044656661756C40
:102DD0007473004C6F61642053657474696E67731B
:102DE0000053746F72652053657474696E67730065
:102DF0004C696768747300536F756E640050726538
:102E000068656174202420436F6E6600506F77659B
:102E100072204F7574616765004F6666004F6E00E3
:102E200052756E6F75742053656E736F72005265C4
:102E3000747261637400546F6F6C204368616E67D5
:102E40006500424C546F7563680050726F62652074
:102E50005A204F666673657400416476616E6365DF
:102E6000642053657474696E67730054656D706592
:102E7000726174757265004D61696E004D37303254
:102E800020542564004D36303020423020542564D3
:102E9000004D373032203B2564004D37303120540F
:102EA0002564004368616E67652046696C616D65E5
:102EB0006E74005072656865617420437573746F39
:102EC0006D00507265686561742024004261636B17
:102ED000004368616E67652046696C616D656E745C
:102EE000202A004D61696E00436F6E74696E7565CE
:102EF000004F6666004F6E0052756E6F75742053FA
:102F0000656E736F72005075726765206D6F7265C4
:102F100000524553554D45204F5054494F4E533A5A
:102F2000005052494E5420504155534544002020F2
:102F30004E6F7A7A6C653A20005061726B696E67E9
:102F40002E2E2E0000005761697420666F72006695
:102F5000696C616D656E74206368616E676500748D
:102F60006F207374617274005761697420666F72A8
:102F70000066696C616D656E7420756E6C6F61645E
:102F800000004E6F7A7A6C652068656174696E67BF
:102F900000506C6561736520776169742E2E2E0078
:102FA00000507265737320627574746F6E00746F75
:102FB0002068656174206E6F7A7A6C650000496ED6
:102FC000736572742066696C616D656E7400616E04
:102FD0006420707265737320627574746F6E007410
:102FE0006F20636F6E74696E756500576169742038
:102FF000666F720066696C616D656E74206C6F61DE
:10300000640000507265737320427574746F6E00B3
:10301000746F20726573756D65207072696E7400CF
:10302000005761697420666F72207072696E740057
:10303000746F20726573756D652E2E2E00005761BA
:10304000697420666F720066696C616D656E7420CC
:10305000707572676500004D363030204230205464
:103060002569003132350035004245443A2045504B
:10307000434F53203130304B0052756E6177617988
:103080002057617463683A204F4E004D6178205498
:10309000656D7000323735004D696E2054656D7076
:1030A00000350045313A204550434F5320313030F0
:1030B0004B005053550047656E657269630050724E
:1030C0006F746F636F6C00312E3000426175640065
:1030D0003131353230300052414D505320312E3491
:1030E000004D657368204C6576656C696E670045B8
:1030F0007874727564657273003200746865336445
:1031000068616D6D65722E636F6D0033442050727F
:10311000696E74657200323032322D31302D3035A7
:10312000005433444820322E302E392E35004D6164
:10313000726C696E00546865726D6973746F727336
:1031400000426F61726420496E666F005072696E52
:1031500074657220496E666F004D61696E004D3175
:103160003030300053746F70205072696E740052AA
:103170006573756D65205072696E7400506F776568
:1031800072204F75746167650056696F6C657400D5
:10319000496E6469676F00426C75650047726565CA
:1031A0006E0059656C6C6F77004F72616E676500D9
:1031B0005265640057686974650042726967687493
:1031C0006E65737300426C756520496E74656E732D
:1031D00069747900477265656E20496E74656E7317
:1031E0006974790052656420496E74656E73697400
:1031F00079004C454420436F6E74726F6C004375C8
:1032000073746F6D204C6967687473004C696768EC
:103210007420507265736574730044656661756CE3
:1032200074004F6666004F6E004C696768747300E7
:103230004D61696E003F004261636B0053746F70B3
:10324000004E6F204D65646961005072696E742094
:1032500066726F6D204D65646961004368616E67D9
:1032600065204D65646961004D32310041626F75C2
:1032700074205072696E746572004368616E676590
:103280002046696C616D656E7400436F6E66696798
:1032900075726174696F6E00426564204C65766575
:1032A0006C696E6700526573756D65205072696E4A
:1032B000740054756E650053746F70205072696E9F
:1032C00074005061757365205072696E740050729D
:1032D000657061726500496E666F20536372656543
:1032E0006E003F005374617274205072696E7400F6
:1032F00043616E63656C005072696E740043616E69
:103300006E6F7420656E7465722073756264697285
:103310003A200002202E2E004D61696E004D6F761E
:103320006520246D6D00302E303235004D6F76658E
:1033300020302E316D6D004D6F766520316D6D0042
:103340004D6F76652031306D6D004D6F7665204193
:103350007869730043616E6E6F74206F70656E20C4
:1033600073756264697220004D6564696120496EFD
:103370006974204661696C00534420636172642063
:103380006F6B0A006F70656E526F6F7420666169B3
:103390006C65640A00766F6C756D652E696E697474
:1033A000206661696C65640A004E6F205344206397
:1033B0006172640A000A4D3234004D3233202573A5
:1033C000002E0A006F70656E206661696C65642C62
:1033D0002046696C653A200046696C652073656C0F
:1033E00065637465640A002053697A653A20004673
:1033F000696C65206F70656E65643A2000454E44C7
:1034000020535542524F5554494E450A00222070D0
:103410006F73002220706172656E743A22005355FA
:1034200042524F5554494E452043414C4C20746103
:10343000726765743A220053756263616C6C204F49
:10344000766572666C6F7700457863656564656460
:10345000206D617820535542524F5554494E4520B6
:1034600064657074683A002E0A0044656C6574697E
:103470006F6E206661696C65642C2046696C653AE4
:10348000200046696C652064656C657465643A006B
:1034900057726974696E6720746F2066696C653A4B
:1034A0002000667265736800646F696E670020664D
:1034B000696C653A20004E6F7720002F6175746F3C
:1034C00025632E67006D61726C696E66772E6F7270
:1034D00067005433444820322E302E392E35001FD9
:1034E000FFFFFFFFFFFF600000000001FF40000042
:1034F000000000FF8000000000007F83CF00000C70
:10350000303F87FF80000C301F867980000C000F51
:103510008C30C7838C30E78C30CFC7CC31F38C3004
:10352000DCECEC33B98C30D86C6C33198C30D06C4B
:103530000C33198C30D86C0C33198C30DC6C0E3B8E
:10354000198C30CF7C079F198C30C77C038F1940B2
:10355000000000000002600000000000061FFFFFE6
:10356000FFFFFFF870012C0190012701B00122013B
:10357000C0011D01F00118011002130130020E01FB
:103580006002090190020401C002FF000003FA007A
:103590004003F5008003F000D003EB002004E600B8
:1035A0007004E100E004DC004005D700C005D20053
:1035B0004006CD00D006C8008007C3003008BE001A
:1035C000F008B900C009B400B00AAF00B00BAA00FF
:1035D000D00CA500000EA000500F9B00C01096005C
:1035E0005012910000148C00C0158700B0178200A3
:1035F000B0197D00D01B7800001E730040206E00C3
:1036000090226900F024640040275F0090295A004E
:10361000E02B5500102E500020304B001032460099
:10362000E033410090353C001037370070383200ED
:10363000A0392D00B03A2800A03B2300603C1E00BA
:10364000103D1900903D1400103E0F00703E0A001E
:10365000C03E0500003F0000403FFBFF803FF6FFFB
:10366000C03FF1FF2020506C616E6E65724275663E
:1036700066657242797465733A200020467265650A
:10368000204D656D6F72793A200020436F6D70692F
:103690006C65643A204F6374203137203230323207
:1036A0000A00204C61737420557064617465643A3B
:1036B00020323032322D31302D3035207C20417592
:1036C00074686F723A20543344480A004D61726C3A
:1036D000696E205433444820322E302E392E350A5C
:1036E0000020536F6674776172652052657365744C
:1036F0000A00205761746368646F672052657365C0
:10370000740A002042726F776E206F7574205265C4
:103710007365740A002045787465726E616C20527E
:10372000657365740A00506F77657255700A00738F
:10373000746172740A004732385859004D31303084
:1037400031006F6B006572726F72207772697469F5
:103750006E6720746F2066696C650A00446F6E6541
:1037600020736176696E672066696C652E0A004D6C
:10377000323900456E6473746F70730025532025D1
:10378000632025632025632025630020503A002014
:103790005A3A0020593A0020583A00656E64737412
:1037A0006F7073206869743A2000000021002400C3
:1037B00027002A002D003000330001010000040121
:1037C00007010A0100000A0B02090C0D0E0807038D
:1037D00004010000000000000000000000000000E4
:1037E00000000000000000000000000000000000D9
:1037F0001211100000000000000000000000000096
:10380000000000000000000000002568753A253027
:103810003268750025303268753A25303268750097
:10382000253032687527253032687500486F6D691C
:103830006E67204661696C656400FFFFFF50726F20
:1038400062696E67204661696C65640A0050726F38
:1038500062696E67204661696C656400496E7365D4
:1038600072742066696C616D656E7420616E64208F
:10387000707265737320627574746F6E0A00220A29
:1038800000556E6B6E6F776E20636F6D6D616E6449
:103890003A2022004572726F722077726974696EE5
:1038A0006720746F20454550524F4D210A00204536
:1038B0003A00205A3A0020593A00583A006F6B0AF1
:1038C00000526573656E643A20003344205072697B
:1038D0006E7465722052656164792E005072696E53
:1038E00074696E672E2E2E005072696E74205061BE
:1038F0007573656400010210202008081020401034
:1039000020408002010201080402010102040810A3
:1039100020408080402010080402018004020180C1
:1039200040201008040201080402010102040810EA
:103930002040800102040810204080000022002561
:103940000028002B002E0031003400020100000589
:103950000108010B0105050505070508080808020F
:103960000202020A0A080804040404010101010118
:103970000101010303030303030303040707070C07
:103980000C0C0C0C0C0C0C020202020606060606BD
:103990000606060B0B0B0B0B0B0B0B00DA00E400FF
:1039A00011241FBECFEFD1E2DEBFCDBF00E00CBFC0
:1039B00084B78093D91814BE0FB6F894A895809157
:1039C0006000886180936000109260000FBE13E079
:1039D000A0E0B2E0E0E0F0EC02E00BBF02C0079034
:1039E0000D92A83CB107D9F728E1A8ECB3E001C0DB
:1039F0001D92A93DB207E1F71CE1CFECDCE100E04C
:103A000006C021970109802FFE010F94AD5CCE3CCA
:103A1000D10780E00807A9F70F9489480D94EF5F5C
:103A20000C940000FC0184910895FC0180810895AC
:103A300090E080E00895CF93DF93C091750AD09114
:103A4000760A81E0CE31D105E4F020E030E040E0BC
:103A50005FE36091710A7091720A8091730A90918C
:103A6000740A0F94B65C0F94FA5D6C1B7D0B77FFA4
:103A700003C071956195710981E0633071050CF0A7
:103A800080E0DF91CF910895CF93DF93DB01F901BF
:103A90009C919130C1F0943080F094509C93883088
:103AA000D1F480819181009771F001979183808397
:103AB000480F591FEA01188206C08C3539F49C5F03
:103AC0009C93943041F4DF91CF9108958B3339F773
:103AD00081E08C93F8CF20813181B9016F5F7F4FF6
:103AE00071836083420F531FEA0188838081918133
:103AF0008F3591056CF7E7CF0F931F9381E000910D
:103B0000BD161091BE162091BF163091C01640917F
:103B1000B9165091BA166091BB167091BC16041775
:103B200015072607370708F480E01F910F910895C5
:103B300090E080E0089520910405833021F425FD74
:103B40000CC024FD0CC030E0A90102C0559547957A
:103B50008A95E2F7CA018170089581E0089580E0B6
:103B600008958091200584FD0BC08091220587FD7A
:103B700007C090912305937081E019F480E00895C7
:103B800081E008952FEB280F2A3108F047C0E22F7B
:103B9000F0E08091200590912105A0912205B0913F
:103BA000230504C0B695A795979587952A95D2F7D2
:103BB00080FD02C081700895EA5FFA4FE081EE2334
:103BC00041F180919C0A90919D0AE80FF92FF11D17
:103BD000808190ED980F9A3030F08E3251F48181CF
:103BE00080538A3098F4F0930105E093000581E05A
:103BF00008958D3211F08B3249F4818190ED980F48
:103C00009A3088F38E3211F48281EACFF0E0E0E05E
:103C1000EACF1092010510920005E9CF80E00895E7
:103C2000B1DF882341F081E020910005309101054A
:103C3000232B09F480E008951092B208EDEDF4E032
:103C400085E0808381830895EF92FF920F931F9305
:103C5000CF93DF93EC018B017A018A859B858617D0
:103C6000970731F0888199810F9470341B870A87F8
:103C7000B701888199810F946C2B2E813F81820F2F
:103C8000932F911D9F838E8390E080E0DF91CF91F1
:103C90001F910F91FF90EF9008959F92AF92BF9266
:103CA000CF92DF92EF92FF920F931F93CF93DF9308
:103CB000EC018B01942EA52E8A859B85861797078C
:103CC00031F0888199810F9470341B870A87888529
:103CD0009985019649F5BC800A818E81080FC880BC
:103CE000D980D6015596ED91FC91C6011995B80E73
:103CF000E92CFA2C10E0F70121917F01211127C056
:103D00008E819F81810F911D9F838E8390E080E043
:103D1000DF91CF911F910F91FF90EF90DF90CF90A7
:103D2000BF90AF909F9008950E811F81692D7A2DCD
:103D3000888199810F946C2B800F912F911D28857C
:103D400039852817390738F681E090E0E1CF4B2D0F
:103D5000602FC6010F94C834080F180FCCCFDF9224
:103D6000EF92FF920F931F93CF93DF93EC01D62E28
:103D70001CAD0BAD7C0184E0E80EF11CE98DFA8DE1
:103D8000C7011995412F480F2D2D602FC7010F94A2
:103D9000C8349BAD890F8BAF81E090E0DF91CF916C
:103DA0001F910F91FF90EF90DF900895AF92BF9217
:103DB000DF92EF92FF920F931F93CF93DF938C01CB
:103DC000EB01D42E79018FE0481709F488C0A5E1F2
:103DD0004A17C1F1BAE04B130EC0EC81FD8130E00F
:103DE00020E042E061E0C801199544E853E1BE01DA
:103DF000C8010F9471350A80DB81C02DF2E3DF1614
:103E000009F4E4C0FD1508F493C085E1D81609F45F
:103E1000E2C0A7E1DA1609F4FCC0B4E1DB127DC010
:103E2000EE81FF818D8190E0880F991F8E0F9F1F7B
:103E300011928E179F07E1F71A82888181508B8338
:103E40001C826BC0AA80BB804FE653E1C8010F946F
:103E50007135F5014481440F406BBE01C8010F94D8
:103E6000593541E0BE01C8010F946135D501169660
:103E70002D913C911797EC81FD8115964C9166E050
:103E8000C801199540E0BE01C8010F9469354FE69D
:103E900053E1BE01C8010F947135F5014481440F0F
:103EA0004F5F406BBE01C8010F94593541E0BE0120
:103EB000C8010F946135D50115964C91159716964A
:103EC0002D913C91240F311DEC81FD8166E0C801EC
:103ED000199540E0BE01C8010F9469358CCF41E0CF
:103EE000C8010F94693540E0BE01C8010F946135E7
:103EF00041E8BE01C8010F945935F701408150E0F7
:103F00005595479555954795BE01C8010F9459356C
:103F100040E0BE01C8010F94693581E0DF91CF9187
:103F20001F910F91FF90EF90DF90BF90AF90089599
:103F3000E6E4DE1609F47CC0F7E4DF1609F47CC081
:103F40008BE3D812EACFD70111969C911197139663
:103F50008C9138E0390F813031F0833011F0392FF6
:103F600002C0392F985021E04B81491708F420E016
:103F700041E0391708F040E091E05A81351708F424
:103F800090E0322F342B932311F4242331F2F701E4
:103F9000128100E0D12C843048F490E0FC01E75518
:103FA000FD4FD0808B559D4FDC010C9117FF04C055
:103FB000B701CE010F944532F70180818D0D8083CA
:103FC0008181800F8183110F89F7A7CFB701CE01BF
:103FD0000F944532A2CF88819A81980F9A832981C4
:103FE000921770F59C819F5F9C839B81890F82173C
:103FF00010F08FEF820F8B83EE81FF818D8190E037
:10400000880F991F8E0F9F1F11928E179F07E1F740
:1040100084CFD7011C928A8111968C9311978D8140
:10402000815012968C9312978B8113968C9375CF37
:104030008D81F701808371CF8981D7018C936DCFFA
:1040400080E06CCFCF93DF93C091750AD091760A50
:10405000209729F16091710A7091720A8091730A18
:104060009091740A0F94FA5D6E5F7F4F24976C17DE
:104070007D07ACF47093DA066093D9060F94CF31C4
:10408000605A75418F4F9F4F6093DB067093DC063B
:104090008093DD069093DE06DF91CF910895109214
:1040A000DB061092DC061092DD061092DE06F4CFDD
:1040B000AB01BC014093BD165093BE166093BF1672
:1040C0007093C0168AE398E10D94FF3ACF92DF9285
:1040D000EF92FF920F931F93CF93909163029130D1
:1040E00009F461C0662351F01092E6041092E204D4
:1040F0001092E3041092E4041092E504C82F0F9488
:10410000CF31C090E204D090E304E090E404F0905A
:10411000E5049B01AC012C193D094E095F096901B9
:104120007A01F7FC40C02091E604C7FD15C04C2F72
:104130000C2E000C550B4C5F5F4FE22F022E000C33
:10414000FF0B4E175F077CF144EFC42EDD24D394A0
:10415000E12CF12C2C1734F438EEC32E33E0D32E9F
:10416000E12CF12CC60ED71EE81EF91EC092E20407
:10417000D092E304E092E404F092E504022F01708F
:1041800010E084E2809FB001819F700D701B1124AC
:1041900060597C4F82E390E00E94FBCE8091E60460
:1041A0008F5F8093E604CF911F910F91FF90EF9066
:1041B000DF90CF9008958F929F92AF92BF92CF924F
:1041C000DF92EF92FF920F931F93CF93DF9300D074
:1041D00000D01F921F92CDB7DEB790919A0A492F57
:1041E00050E020919E0530E0092E02C035952795BC
:1041F0000A94E2F72170821779F0662309F458C116
:104200002091DF0430E0092E02C0359527950A94ED
:10421000E2F721708213B5C028960FB6F894DEBF7E
:104220000FBECDBFDF91CF911F910F91FF90EF9007
:10423000DF90CF90BF90AF909F908F90089520E037
:1042400030E0A9016091600570916105809162057F
:10425000909163050F94E655882361F010926005F4
:10426000109261051092620510926305CE010596C9
:104270000E9491CE0023F1F0C090D505D090D605D4
:10428000E090D705F090D80520E030E0A901C70103
:10429000B6010F94E65581111FC0E0919A0A84E09F
:1042A000E89FF0011124EC59FA4F1082118212821A
:1042B000138238C0C090C905D090CA05E090CB05E4
:1042C000F090CC0520E030E0A901C701B6010F94C1
:1042D000E655882309F440C0A70196016091AC100F
:1042E0007091AD108091AE109091AF100F94B55CAD
:1042F0006093AC107093AD108093AE109093AF109C
:104300008CEA90E10E9426A4E0919A0A84E0E89F5A
:10431000F0011124EC59FA4F10821182128213829B
:10432000002331F18091D9059091DA05A091DB0548
:10433000B091DC0589839A83AB83BC83CE0101965F
:104340009CC08095282320939E05002309F464CF08
:104350009091DF048923A9C0E0919A0A84E0E89F44
:10436000F0011124EC59FA4F10821182128213824B
:104370008091CD059091CE05A091CF05B091D0054B
:10438000D9CF81110AC02091DF0430E002C03595F9
:1043900027959A95E2F720FF8EC0C090D105D09066
:1043A000D205E090D305F090D40501E0182F80E10C
:1043B000E0EAF0E1A9E6B7E001900D928A95E1F715
:1043C0008091450790914607A0914707B091480713
:1043D0008D839E83AF83B887112309F430CF440FB8
:1043E000551F440F551FFA01EC59FA4FC082D18274
:1043F000E282F3828091C1059091C205A091C3052C
:10440000B091C40589839A83AB83BC83CE010196A6
:104410000E9491CEC0906005D0906105E090620549
:10442000F090630520E030E0A901C701B6010F94C8
:10443000E655811124C08090C5059090C605A090D6
:10444000C705B090C8052AE037ED43E25CE3C5013B
:10445000B4010F94DD5E181694F4A5019401C70110
:10446000B6010F94B65C609360057093610580930C
:10447000620590936305CE0105960E9491CE20912E
:104480009E0530919A0A81E090E001C0880F3A952C
:10449000EAF7112309F455CF282B20939E0500231A
:1044A00009F4BACE9091DF04892B8093DF04B4CE57
:1044B000882309F468CFC090BD05D090BE05E09078
:1044C000BF05F090C00500E071CF8091000590918C
:1044D0000105009731F04AE050E070E060E00D9493
:1044E000075460E070E0CB010895CF92DF92EF9225
:1044F000FF92CF936B017C01C42F809117068F5FD1
:1045000009F4DCC080931706809117068093D706C4
:1045100020E030E040E752E460915602709157028B
:1045200080915802909159020F944B560F94FF5D61
:104530007093290660932806C0922A06D0922B0613
:10454000E0922C06F0922D068091D606C0FB80F9F1
:104550008093D6068CE0ECE1FAE0AEE2B6E00190A2
:104560000D928A95E1F78CE0E8E4F5E0AAE3B6E085
:1045700001900D928A95E1F780919A0A8093460600
:104580008091D6069091BB0590FB84F94091B305CC
:104590005091B4056091B5057091B60540934706FA
:1045A000509348066093490670934A064091B705B8
:1045B0005091B8056091B9057091BA0540934B06CA
:1045C00050934C0660934D0670934E062091000761
:1045D000309101073093500620934F062091750AC1
:1045E0003091760A309352062093510690916C0ACE
:1045F0009093530690910F0790FB83F98093D60612
:1046000080919F059091A005A091A105B091A20570
:104610008093540690935506A0935606B093570680
:1046200088E0E4E6F5E0A8E5B6E001900D928A9511
:10463000E1F78091600590916105A0916205B091CC
:1046400063058093600690936106A0936206B09321
:1046500063060E94A7B06093D1067093D206809340
:10466000D3069093D406809104058093D50690914B
:1046700089058091D60693FB81F99091020590FB04
:1046800082F98093D60680E00F94573640E050E0E0
:10469000BA018BED96E10F94FF3A41EC50E067E1EF
:1046A00076E08BED96E10F94213C8BED96E1CF9176
:1046B000FF90EF90DF90CF900C94A17E81E022CF0D
:1046C0008091000590910105009731F04AE050E09B
:1046D00070E060E00D94DA5260E070E0CB01089584
:1046E000CF93DF93EB019CDA882311F0E9DFEB0134
:1046F000CE01DF91CF910895E3DFCB010895CF93F1
:10470000DF93EB018DDA882319F0DF91CF91F4CF9D
:10471000CE01DF91CF910895D3DF97FD0AC0D0DF9E
:104720006F3F71058105910509F02CF4C9DF862FD3
:10473000089580E008958FEF0895CF93C62F70DA23
:10474000882311F0CF91E8CF8C2FCF9108958091DD
:10475000000590910105892B39F0DEDF91E0811190
:1047600001C090E0892F089591E0FCCFCF93DF93B3
:10477000C82FD62F55DA882319F0DF91CF91E7CFD4
:104780008C2F00DA811101C08D2FDF91CF91089518
:104790000F931F93CF93809100059091010500978F
:1047A000E9F0FC018F01C1912C2F2F7D81F0C534E0
:1047B00011F0C536B9F7F801108270E060E00F948F
:1047C0008451F801C083CF911F910F91089570E03B
:1047D00060E0CF911F910F910D94845160E070E0E3
:1047E000CB01F1CFCF92DF92EF92FF926A017B0172
:1047F00017DA882329F0FF90EF90DF90CF90C8CF91
:10480000C701B601FF90EF90DF90CF9008954F92CF
:104810005F926F927F928F929F92AF92BF92CF9250
:10482000DF92EF92FF920F931F93CF93DF9300D00D
:104830001F92CDB7DEB719821A821B821C829EE2BC
:10484000A92E93E0B92ECE0101964C0129E6C22E85
:1048500027E0D22E30EAE32E30E1F32E10E000E024
:10486000F50181915F01DCD9F40181934F01882327
:1048700009F4B9C08DDF2B013C01802F5CD988235E
:1048800009F4A1C0F7012081318142815381C30124
:10489000B2010F94B65CF6016083718382839383C7
:1048A0000F5F1F4FF4E0CF0ED11C84E0E80EF11C27
:1048B00003301105A9F685E4B3D98C83882309F464
:1048C0009DC066DF6B017C0183E035D9882371F0E0
:1048D0002091AC103091AD104091AE105091AF10BE
:1048E000C701B6010F94B65C6B017C01C0927507DD
:1048F000D0927607E0927707F09278078091DD05F5
:10490000882389F18091C11682FF2DC087FD2BC0BD
:104910008C81882341F18981811103C08A81882398
:1049200011F12DEC3CEC4CE45DE3609120067091BC
:10493000210680912206909123060F94B65C9B017C
:10494000AC016091A8107091A9108091AA1090916B
:10495000AB100F94DD5E181634F440E060E070E0B8
:1049600080E090E4C2DD40E050E0BA0186E43ADF46
:1049700020E030E0A9010F94DD5E18167CF408DF1A
:1049800020E030E040E752E40F94925D60935602DD
:104990007093570280935802909359020F900F9092
:1049A0000F900F90DF91CF911F910F91FF90EF909B
:1049B000DF90CF90BF90AF909F908F907F906F903F
:1049C0005F904F900895F801EE0FFF1FEE0FFF1F4D
:1049D000E055FF4E2081318142815381C301B201F4
:1049E0000F94B55C58CFF70180819181A281B3818A
:1049F000F60180839183A283B38352CF8091AC1060
:104A00009091AD10A091AE10B091AF10809375074A
:104A100090937607A0937707B09378076FCFAF9204
:104A2000BF92CF92DF92EF92FF920F931F93CF939B
:104A30005C016B018A0185539B4F7C01DC01CC91A9
:104A4000C7FF3DC0FB0111821082CF5FD701CC931D
:104A5000CC300CF053C08CE08A9DF0018B9DF00DA2
:104A60001124CF018C0F911DC7FD9A952091F71548
:104A70002817190609F00CF441C0F6012081318194
:104A8000FC01EE0FFF1FE80FF91FE155FA4E81817F
:104A90009281820F931FD80111969C938E938081EF
:104AA00087FF3DC061E08F77CF911F910F91FF90FD
:104AB000EF90DF90CF90BF90AF900D9451308CE08D
:104AC0008A9DF0018B9DF00D1124CF018C0F911D5B
:104AD000C7FD9A952091F7152817190609F00CF4CF
:104AE000B4CFFC01EE0FFF1FE80FF91FE155FA4E9E
:104AF000808160E08F770F945130A7CFF6018081DD
:104B0000918104968034FCE99F0710F480E49CE9CD
:104B1000D80111969C938E938FEFF7018083CF91EC
:104B20001F910F91FF90EF90DF90CF90BF90AF90CB
:104B30000895AF92BF92CF92DF92EF92FF920F93C0
:104B40001F93CF93DF93EC015B018A01FB01199561
:104B500087FD16C0C82ED12CF12CE12C2196F8012E
:104B6000C082D182E282F382CE01DF91CF911F9188
:104B70000F91FF90EF90DF90CF90BF90AF9008958E
:104B8000982F907E903CA9F48F7190E0B0E0A0E067
:104B90006C017D0156E0CC0CDD1CEE1CFF1C5A950F
:104BA000D1F7CE010196F50119958F73C82A229687
:104BB000D6CF982F907F903E11F58F7090E0B0E0A7
:104BC000A0E06C017D0136E0CC0CDD1CEE1CFF1C6E
:104BD0003A95D1F7CE010196F50119958F73C82A40
:104BE00046E0CC0CDD1CEE1CFF1C4A95D1F7CE0133
:104BF0000296F50119958F73C82A2396B0CF982F86
:104C0000987F903F79F5877090E0B0E0A0E06C016C
:104C10007D0186E0CC0CDD1CEE1CFF1C8A95D1F7D3
:104C2000CE010196F50119958F73C82A96E0CC0C38
:104C3000DD1CEE1CFF1C9A95D1F7CE010296F50102
:104C400019958F73C82A26E0CC0CDD1CEE1CFF1CC6
:104C50002A95D1F7CE010396F50119958F73C82ACD
:104C600024967DCF982F907C903841F4807C8038BA
:104C700069F42196CE01F5011995F8CF8E7F8D3F0D
:104C800028F02196CE01F5011995F8CFC12CD12C31
:104C9000760165CF20E030E040E05FE36091FC0604
:104CA0007091FD068091FE069091FF060F94B65C10
:104CB0000F94FA5DCB0108959CE0899F802D11240B
:104CC00091E0980F90932C052CE0280F20938D0AEB
:104CD00030E02E5F3F4F409190164217130619F0B7
:104CE00014F080E00895209192169217D0F7662371
:104CF00041F08E5F0F949E3380918D0A8E5F0F94EA
:104D00009E3380918D0A90919016891750F32091CF
:104D1000921690912C05291720F3109293168093E8
:104D2000941681E0089520912A05022E000C330B81
:104D30008217130641F080932A0561EB73E18CE53D
:104D400096E10D94703408951F93CF93DF931F92D3
:104D5000CDB7DEB710912E0280919516811105C056
:104D600081E0809395160F947C3260915E1670916D
:104D70005F1619839E012F5F3F4F4FE08CE596E150
:104D80000F9478320F90DF91CF911F910895CF93B8
:104D900080912B0581114FC010929316109294169A
:104DA000109295161092611610926016109263166A
:104DB000109262161092651681E08093641682E26A
:104DC0008093661610926B1610926A16EFE7F6E162
:104DD0002DE836E18FEF81932E173F07E1F7C1E011
:104DE000C0937C162CED30E0309372162093711630
:104DF000C0937316109274161092751690E49093E7
:104E000076161092771624EC30E030938E162093AD
:104E10008D1625E132E030935F1620935E1691E106
:104E20009093811690E19093801680937F160F9453
:104E30007C32C0932B05099A11988FE19EE401976B
:104E4000F1F700C00000119A8FE19EE40197F1F79D
:104E500000C00000C1E0C09395160F947C328FEF24
:104E600080932E0271DFC0932D058FE693E190931E
:104E700098158093971510929A1510929915CF91C5
:104E80000895EF92FF920F931F93CF93DF93CDB7C7
:104E9000DEB72C970FB6F894DEBF0FBECDBFFC0176
:104EA00060817181828193816F3F710581059105D8
:104EB00009F0C0F488E596E10E94AF1EE09160160B
:104EC000F09161163196849190E02C960FB6F8948B
:104ED000DEBF0FBECDBFDF91CF911F910F91FF902D
:104EE000EF900895109193160091941620912D053E
:104EF00021110FC04FE453E1602F812F0F94333500
:104F000090E080E0180F1093931600939416992761
:104F1000DCCFE0906016F09061162CE536E13A8324
:104F20002983212F30E03C832B83202F30E03E83E8
:104F30002D8318861F822FEF3FEF3A8729871C8623
:104F40001B862DE43EE1AE014F5F5F4FBF01C701FD
:104F50000F94BC20B7018CE596E10F9470348F81DB
:104F60009885D0CFCF93DF93FC0125AD211104C0EC
:104F700021E025AF0F947C32C0915E16D0915F1670
:104F8000E0918D16F0918E1682E01995E0918D16C4
:104F9000F0918E1681E0199530E020E044E1BE01E9
:104FA0008CE596E10F9478322FE836E147E1BE01B7
:104FB0008CE596E10F947832E0918D16F0918E1683
:104FC00080E0DF91CF911994CF92DF92EF92FF9220
:104FD0000F931F93CF93DF93CDB7DEB72C970FB608
:104FE000F894DEBF0FBECDBFF0909316E0909416FC
:104FF00020912D0521111DC04FE253E16E2D8F2D03
:105000000F94333590E080E0F80EF0929316E09222
:10501000941699272C960FB6F894DEBF0FBECDBF1D
:10502000DF91CF911F910F91FF90EF90DF90CF9084
:105030000895C0906016D09061162CE536E13A8351
:1050400029832F2D30E03C832B832E2D30E03E83AF
:105050002D8318861F827A8769871C861B860DE43C
:105060001EE19E012F5F3F4F42E15DE1BC01C601A1
:105070000F948121B6018CE596E10F9470348F81F5
:105080009885C2CFE8E5F6E183AF64AF6FEF7FEFBD
:10509000CA019ACFCF92DF92EF92FF920F931F93A4
:1050A000CF93DF93CDB7DEB72C970FB6F894DEBF62
:1050B0000FBECDBFF0909316E090941620912D0571
:1050C00021111DC04FE053E16E2D8F2D0F9433350C
:1050D00090E080E0F80EF0929316E09294169927F3
:1050E0002C960FB6F894DEBF0FBECDBFDF91CF91E7
:1050F0001F910F91FF90EF90DF90CF900895C09097
:105100006016D09061162CE536E13A8329832F2D65
:1051100030E03C832B832E2D30E03E832D83188698
:105120001F827A8769871C861B860DE41EE19E011B
:105130002F5F3F4F45E15DE1BC01C6010F94812126
:10514000B6018CE596E10F9470348F819885C2CFBB
:105150002F923F924F925F926F927F928F929F9287
:10516000AF92BF92CF92DF92EF92FF920F931F9375
:10517000CF93DF9300D01F92CDB7DEB76B01142F12
:10518000790141FB662760F997DD882309F474C033
:10519000B12CA12CC114D10439F0C6010F945604CE
:1051A00066E0869F50011124312C212CE114F1047A
:1051B00029F0C7010F942806282E312C10FF28C093
:1051C00080E890E08A199B094AEFB10146039001FB
:1051D000479F300D1124820F931F6CE070E00F94F5
:1051E0009A5C4B0100E810E090E2492E512C612CB2
:1051F000712C71E0871A910897FC0CC049825A8281
:105200006B827C82CE0101963CDE081B190BF1CF2C
:1052100000E810E0AB28B9F0C80166E070E00F9438
:10522000865C2091910A3091920A40918F0A5091A8
:10523000900A062F60918E0AC6010F94500396E0E3
:10524000899F80011124232829F0B801C70122DF9A
:10525000081B190B80E2C82ED12CE12CF12C073051
:10526000110550F0C982DA82EB82FC82CE010196F0
:1052700008DE081B190BF3CF0F900F900F900F90C3
:10528000DF91CF911F910F91FF90EF90DF90CF9022
:10529000BF90AF909F908F907F906F905F904F9056
:1052A0003F902F9008956FEF7FEFF4CE8F929F92F3
:1052B000AF92BF92CF92DF92EF92FF920F931F9324
:1052C000CF93DF9300D01F92CDB7DEB74C016B01B7
:1052D0000F945604A82EC6010F942806B12C23E182
:1052E00030E07901E81AF10815E2EA14FB040CF445
:1052F0001FE1812F90E09C012E5F3F4F409190165F
:105300004217130611F00CF049C00997209192162C
:10531000281719060CF442C02091910A3091920A84
:1053200040918F0A5091900A60918E0A10929316C4
:105330001093941605E1C4010F94500301E0C114C9
:10534000D104D9F08AE390E0A0E0B0E089839A83A9
:10535000AB83BC83CE01019694DDEA14FB0404F513
:10536000145F80919016181740F020919216412FEB
:105370004950550B24171506ACF40F900F900F9061
:105380000F90DF91CF911F910F91FF90EF90DF90E1
:10539000CF90BF90AF909F908F90089500E0CFCFB7
:1053A000002359F380E290E0A0E0B0E089839A8383
:1053B000AB83BC838E2D880FE80EEE0CE092931623
:1053C00010939416CE0101965CDDC6016CDFD5CF3B
:1053D0004F925F926F927F928F929F92AF92BF9205
:1053E000CF92DF92EF92FF920F931F93CF93DF93B1
:1053F000CDB7DEB72C970FB6F894DEBF0FBECDBF8A
:10540000982F862F5A017901D02E692F55DC8823D9
:1054100009F49BC0C701002309F441C00F9456044E
:10542000C82E809060169090611680912D05811194
:1054300055C01FEF03E10C192091910A3091920A97
:1054400040918F0A5091900A60918E0AC5010F9485
:105450005003CC2009F479C0B6E08B9F5001112491
:105460008AE390E0A0E0B0E089839A83AB83BC83B9
:10547000CE01019606DD80E2482E512C612C712C64
:1054800057E0A516B10408F446C049825A826B82DF
:105490007C82CE010196F5DCA81AB90AF1CF0F94EF
:1054A0002806C82E809060169090611680912D0578
:1054B000882309F4BECFFE0133968AE0DF011D92F6
:1054C0008A95E9F78CE596E19A83898304E21EE1E7
:1054D0009E012F5F3F4F45E15DE112C0FE01339613
:1054E0008AE0DF011D928A95E9F78CE596E19A83BF
:1054F000898304E21EE19E012F5F3F4F42E15DE19F
:10550000B701C4010F948121B4018CE596E10F9499
:1055100070341F818FCF40918D0A212F30E0A6E09B
:10552000CA9EC00111242E5F3F4F281739070CF483
:105530009C0180E8821B8093931640939416DD2093
:10554000D9F06FEF7FEFC7013FDD2C960FB6F894CF
:10555000DEBF0FBECDBFDF91CF911F910F91FF90A6
:10556000EF90DF90CF90BF90AF909F908F907F9003
:105570006F905F904F900895C70195DEE6CFE8E504
:10558000F6E183AF64AFCA018ECE0D94C52380913E
:10559000990A882319F080E00E9423B080E00895E2
:1055A0008F929F92AF92BF92CF92DF92EF92FF9233
:1055B0000F931F93CF93DF93109229051092280524
:1055C0002FE32093270510922605109225051092AF
:1055D00024051092200510922105109222051092A8
:1055E00023059C01F90190812F5F3F4F9032D1F349
:1055F0009E34C9F4818190ED980F9A3020F08D325D
:1056000011F08B3281F432969F012F5F3F4F8081E2
:1056100080538A3008F47BC09F012F5F3F4F808109
:10562000803209F476C0F0939D0AE0939C0A8F01C2
:105630000F5F1F4FC0816AE270E0C8010F94B55F31
:10564000009731F0FC01319780818032E1F31182C3
:10565000CD3429F0C43519F0C73409F04BC0F80136
:1056600080810F5F1F4F8032D1F380538A3008F062
:1056700041C0C093270530E020E04AE0DF011196E9
:10568000429FC001439F900D11249C01205331097A
:105690008081280F311D87FD3A95818190ED980F0B
:1056A0009A30C8F130932605209325058E3261F497
:1056B000329690E04AE0DF0131968C9150ED580F20
:1056C0005A3058F190932405CD01DC0101964C919C
:1056D0004032D9F3CD3489F52E31310539F018F542
:1056E0002731310519F02C31310539F5B0932905F1
:1056F000A0932805DF91CF911F910F91FF90EF901C
:10570000DF90CF90BF90AF909F908F900895F90158
:105710007BCFF90181CFFD01B1CF949F800D112482
:1057200090ED980FC8CF2537310538F02737310570
:10573000E8F2203A83E03807C9F2D0919C0A40E0B1
:1057400050E0BA0110E000E0C12CD12C7601C394E6
:10575000FD0131968C91882309F47FC08132E1F4F8
:10576000CD34D1F420323105B9F440932005509363
:1057700021056093220570932305F0932905E0939A
:10578000280563E270E0CF010F94B55F009709F43C
:10579000B1CFFC011082AECF81548A3108F058C0DD
:1057A000DF019D91903291F0A0EDA90FAA30E8F0B1
:1057B0009E3271F4918190539A30B8F00115110521
:1057C00019F48F010150110990E013C0FD01E8CFD9
:1057D0009D3211F09B3291F79181A0EDA90FAA3073
:1057E00020F09E3259F79281E6CF9E2F9D1B309775
:1057F00059F3A82FB0E04601570104C0880C991C4A
:10580000AA1CBB1C8A95D2F7482959296A297B29E9
:10581000AA5FBA4F9C9380818154DF018A3108F4DA
:1058200097CFDF018191882309F492CF90ED980FF3
:105830009A30B8F393ED980F923098F38B3289F346
:10584000CD010196EC91E03209F082CFDC01F8CF76
:105850000115110501F78D01DECF10932905009385
:1058600028054093200550932105609322057093ED
:10587000230540CF4FE350E0BC018BE29AE00D944A
:10588000D55FE7E1F6E081ECDF011D928A95E9F74B
:1058900008958091DD05811103C0F3DF0D94D2449A
:1058A0008091C11682FF09C087FD07C040E060E01B
:1058B00070E080E090E40C947522089580911706C2
:1058C000882361F09091D706891308C08091C11692
:1058D00084FF04C084E696E00D942F4280E0089592
:1058E000FC01238121110C94A17E0895AC018091CB
:1058F000020581110EC09091B50891110BC0209145
:105900001302309114022250310981E042175307EB
:105910000CF080E00895CF92DF92EF92FF92CF9348
:10592000DF936B017C01D0E0C0E08091C7169091BD
:10593000C816C817D90738F4B701A601CE010F94CD
:105940008C222196F2CFDF91CF91FF90EF90DF90E4
:10595000CF900D94BE21CF92DF92EF92FF92CF9322
:10596000DF936B017C018091150AD0E0C0E087FDD8
:1059700012C0B701A601082E000C990B0F948C22BF
:105980008FEF8093150ADF91CF91FF90EF90DF901A
:10599000CF900D94BE218091C7169091C816C8175C
:1059A000D90788F7B701A601CE010F948C22219662
:1059B000F2CFBF92CF92DF92EF92FF920F931F939D
:1059C000CF93DF9300D01F92CDB7DEB78C01B62EF8
:1059D0008FEF89838A838B838FE78C8344E050E049
:1059E000B801CE0101960F948C5F892B09F43FC05A
:1059F000F8018081C180D12CF12CE12CFE2CED2C02
:105A0000DC2CCC24E82A8281C82AF80183810F94F7
:105A1000F522BB2091F1B701A6018091E00490919D
:105A2000E1040F948C220F94BE218091E0049091A8
:105A3000E10401969093E1048093E0042091C7165D
:105A40003091C8168217930720F01092E10410924B
:105A5000E0040F900F900F900F90DF91CF911F9166
:105A60000F91FF90EF90DF90CF90BF900895CC24DE
:105A7000CA94DC2CEC2CF12CC8CFC701B6016BDF2B
:105A8000F80180819181482F490F5527551F828148
:105A9000840F952F911D21E0833091050CF420E0B7
:105AA0002093D8060397ACF2F80180819181A281FE
:105AB000B3818093961690939716A0939816B093FF
:105AC0009916C7CF8F929F92AF92BF92CF92DF92DB
:105AD000EF92FF92CF93DF9300D01F92CDB7DEB746
